{"src/vaults/PaymentKitaVault.sol":{"PaymentKitaVault":{"abi":[{"type":"constructor","inputs":[],"stateMutability":"nonpayable"},{"type":"function","name":"approveToken","inputs":[{"name":"token","type":"address","internalType":"address"},{"name":"spender","type":"address","internalType":"address"},{"name":"amount","type":"uint256","internalType":"uint256"}],"outputs":[],"stateMutability":"nonpayable"},{"type":"function","name":"authorizedSpenders","inputs":[{"name":"","type":"address","internalType":"address"}],"outputs":[{"name":"","type":"bool","internalType":"bool"}],"stateMutability":"view"},{"type":"function","name":"emergencyWithdraw","inputs":[{"name":"token","type":"address","internalType":"address"},{"name":"to","type":"address","internalType":"address"},{"name":"amount","type":"uint256","internalType":"uint256"}],"outputs":[],"stateMutability":"nonpayable"},{"type":"function","name":"owner","inputs":[],"outputs":[{"name":"","type":"address","internalType":"address"}],"stateMutability":"view"},{"type":"function","name":"pullTokens","inputs":[{"name":"token","type":"address","internalType":"address"},{"name":"from","type":"address","internalType":"address"},{"name":"amount","type":"uint256","internalType":"uint256"}],"outputs":[],"stateMutability":"nonpayable"},{"type":"function","name":"pushTokens","inputs":[{"name":"token","type":"address","internalType":"address"},{"name":"to","type":"address","internalType":"address"},{"name":"amount","type":"uint256","internalType":"uint256"}],"outputs":[],"stateMutability":"nonpayable"},{"type":"function","name":"renounceOwnership","inputs":[],"outputs":[],"stateMutability":"nonpayable"},{"type":"function","name":"setAuthorizedSpender","inputs":[{"name":"spender","type":"address","internalType":"address"},{"name":"authorized","type":"bool","internalType":"bool"}],"outputs":[],"stateMutability":"nonpayable"},{"type":"function","name":"transferOwnership","inputs":[{"name":"newOwner","type":"address","internalType":"address"}],"outputs":[],"stateMutability":"nonpayable"},{"type":"event","name":"OwnershipTransferred","inputs":[{"name":"previousOwner","type":"address","indexed":true,"internalType":"address"},{"name":"newOwner","type":"address","indexed":true,"internalType":"address"}],"anonymous":false},{"type":"event","name":"SpenderAuthorized","inputs":[{"name":"spender","type":"address","indexed":true,"internalType":"address"},{"name":"authorized","type":"bool","indexed":false,"internalType":"bool"}],"anonymous":false},{"type":"event","name":"TokensDeposited","inputs":[{"name":"user","type":"address","indexed":true,"internalType":"address"},{"name":"token","type":"address","indexed":true,"internalType":"address"},{"name":"amount","type":"uint256","indexed":false,"internalType":"uint256"}],"anonymous":false},{"type":"event","name":"TokensWithdrawn","inputs":[{"name":"to","type":"address","indexed":true,"internalType":"address"},{"name":"token","type":"address","indexed":true,"internalType":"address"},{"name":"amount","type":"uint256","indexed":false,"internalType":"uint256"}],"anonymous":false},{"type":"error","name":"InvalidAddress","inputs":[]},{"type":"error","name":"OwnableInvalidOwner","inputs":[{"name":"owner","type":"address","internalType":"address"}]},{"type":"error","name":"OwnableUnauthorizedAccount","inputs":[{"name":"account","type":"address","internalType":"address"}]},{"type":"error","name":"ReentrancyGuardReentrantCall","inputs":[]},{"type":"error","name":"SafeERC20FailedOperation","inputs":[{"name":"token","type":"address","internalType":"address"}]},{"type":"error","name":"Unauthorized","inputs":[]}],"userdoc":{},"devdoc":{},"evm":{"bytecode":{"object":"6080806040523461009c573315610087575f8054336001600160a01b03198216811783556040519290916001600160a01b0316907f8be0079c531659141344cd1fd0a4f28419497f9722a3daafe3b4186f6b6457e09080a360017f9b779b17422d0df92223018b32b4d1fa46e071723d6817e2486d003becc55f005561072290816100a18239f35b631e4fbdf760e01b81525f6004820152602490fd5b5f80fdfe60406080815260049081361015610014575f80fd5b5f91823560e01c8063042f1ba7146104d8578063715018a61461047b5780638da5cb5b14610453578063a6c29ca3146103c8578063ac85dca7146102d4578063d2454e8d14610296578063da3e33971461015a578063e63ea4081461010a5763f2fde38b14610081575f80fd5b346101065760203660031901126101065761009a610570565b906100a36105bf565b6001600160a01b039182169283156100f057505082546001600160a01b0319811683178455167f8be0079c531659141344cd1fd0a4f28419497f9722a3daafe3b4186f6b6457e08380a380f35b51631e4fbdf760e01b8152908101849052602490fd5b8280fd5b509190346101565761011b3661058a565b9290916101266105bf565b6001600160a01b03918383161561014757506101449495501661066e565b80f35b5163e6c4247b60e01b81528690fd5b5080fd5b5090346101065761016a3661058a565b610177949293919461062c565b815163095ea7b360e01b8088526001600160a01b0396871680865260248490529096959095169490602088604481808a5af16001895114811615610289575b818552156101c2578780f35b86885281855287602452602088604481808a5af1600189511481161561026a575b818552156102555750825195875283526024528360208660448180885af1916001875114831615610230575b521561021d57808080808780f35b635274afe760e01b835282015260249150fd5b919050600181151661024c578490843b15153d1516169161020f565b843d87823e3d90fd5b635274afe760e01b8152848101869052602490fd5b600181151661028057863b15153d1516166101e3565b503d88823e3d90fd5b863b15153d1516166101b6565b5050346101565760203660031901126101565760209160ff9082906001600160a01b036102c1610570565b1681526001855220541690519015158152f35b5034610106576102e33661058a565b9193906102ee61062c565b6102f66105ea565b81516323b872dd60e01b87526001600160a01b03918216808652306024526044859052959091169493602087606481808a5af160018851148116156103a9575b82845287606052156103955750507fcbc4a4091b012bb1329c38bbbb15455f5cac5aa3673da0a7f38cd61a4f4955179160209151908152a360017f9b779b17422d0df92223018b32b4d1fa46e071723d6817e2486d003becc55f005580f35b635274afe760e01b82528101859052602490fd5b60018115166103bf57863b15153d151616610336565b823d89823e3d90fd5b5050346101565760207f6337ed398c0e8467698c581374fdce4db14922df487b5a39483079f5f59b60a46103fb3661058a565b93919061040661062c565b61040e6105ea565b6001600160a01b039182169561042586838961066e565b519485521692a360017f9b779b17422d0df92223018b32b4d1fa46e071723d6817e2486d003becc55f005580f35b505034610156578160031936011261015657905490516001600160a01b039091168152602090f35b83346104d557806003193601126104d5576104946105bf565b80546001600160a01b03198116825581906001600160a01b03167f8be0079c531659141344cd1fd0a4f28419497f9722a3daafe3b4186f6b6457e08280a380f35b80fd5b5090346101065780600319360112610106576104f2610570565b906024359182151580930361056c576105096105bf565b6001600160a01b031692831561055e57507fae147a7c9fb958af671f40fcdd8c9317dd78c17d572aeb8fb41010846c4a45c8916020918486526001835280862060ff1981541660ff841617905551908152a280f35b905163e6c4247b60e01b8152fd5b8480fd5b600435906001600160a01b038216820361058657565b5f80fd5b6060906003190112610586576001600160a01b0390600435828116810361058657916024359081168103610586579060443590565b5f546001600160a01b031633036105d257565b60405163118cdaa760e01b8152336004820152602490fd5b7f9b779b17422d0df92223018b32b4d1fa46e071723d6817e2486d003becc55f00600281541461061a5760029055565b604051633ee5aeb560e01b8152600490fd5b335f52600160205260ff60405f205416158061065a575b61064957565b6040516282b42960e81b8152600490fd5b505f546001600160a01b0316331415610643565b60405163a9059cbb60e01b5f9081526001600160a01b039384166004526024949094529260209060448180855af160015f51148116156106cd575b83604052156106b757505050565b635274afe760e01b835216600482015260249150fd5b60018115166106e357813b15153d1516166106a9565b833d5f823e3d90fdfea264697066735822122042e24f04fb2bf11fe8cac64baeb51329bdaae6851a78825441ee9a246d646de864736f6c63430008140033","linkReferences":{}},"methodIdentifiers":{"approveToken(address,address,uint256)":"da3e3397","authorizedSpenders(address)":"d2454e8d","emergencyWithdraw(address,address,uint256)":"e63ea408","owner()":"8da5cb5b","pullTokens(address,address,uint256)":"ac85dca7","pushTokens(address,address,uint256)":"a6c29ca3","renounceOwnership()":"715018a6","setAuthorizedSpender(address,bool)":"042f1ba7","transferOwnership(address)":"f2fde38b"}}}}}