{"src/TokenSwapper.sol":{"TokenSwapper":{"abi":[{"type":"constructor","inputs":[{"name":"_universalRouter","type":"address","internalType":"address"},{"name":"_poolManager","type":"address","internalType":"address"},{"name":"_bridgeToken","type":"address","internalType":"address"}],"stateMutability":"nonpayable"},{"type":"function","name":"DEFAULT_SLIPPAGE_BPS","inputs":[],"outputs":[{"name":"","type":"uint256","internalType":"uint256"}],"stateMutability":"view"},{"type":"function","name":"GAS_OVERHEAD","inputs":[],"outputs":[{"name":"","type":"uint256","internalType":"uint256"}],"stateMutability":"view"},{"type":"function","name":"GAS_PER_HOP","inputs":[],"outputs":[{"name":"","type":"uint256","internalType":"uint256"}],"stateMutability":"view"},{"type":"function","name":"GAS_SINGLE_HOP","inputs":[],"outputs":[{"name":"","type":"uint256","internalType":"uint256"}],"stateMutability":"view"},{"type":"function","name":"V4_SWAP","inputs":[],"outputs":[{"name":"","type":"bytes1","internalType":"bytes1"}],"stateMutability":"view"},{"type":"function","name":"authorizedCallers","inputs":[{"name":"","type":"address","internalType":"address"}],"outputs":[{"name":"","type":"bool","internalType":"bool"}],"stateMutability":"view"},{"type":"function","name":"bridgeToken","inputs":[],"outputs":[{"name":"","type":"address","internalType":"address"}],"stateMutability":"view"},{"type":"function","name":"directPools","inputs":[{"name":"","type":"bytes32","internalType":"bytes32"}],"outputs":[{"name":"fee","type":"uint24","internalType":"uint24"},{"name":"tickSpacing","type":"int24","internalType":"int24"},{"name":"hooks","type":"address","internalType":"address"},{"name":"hookData","type":"bytes","internalType":"bytes"},{"name":"isActive","type":"bool","internalType":"bool"}],"stateMutability":"view"},{"type":"function","name":"estimateSwapGas","inputs":[{"name":"tokenIn","type":"address","internalType":"address"},{"name":"tokenOut","type":"address","internalType":"address"},{"name":"","type":"uint256","internalType":"uint256"}],"outputs":[{"name":"estimatedGas","type":"uint256","internalType":"uint256"},{"name":"hopCount","type":"uint256","internalType":"uint256"}],"stateMutability":"view"},{"type":"function","name":"findRoute","inputs":[{"name":"tokenIn","type":"address","internalType":"address"},{"name":"tokenOut","type":"address","internalType":"address"}],"outputs":[{"name":"exists","type":"bool","internalType":"bool"},{"name":"isDirect","type":"bool","internalType":"bool"},{"name":"path","type":"address[]","internalType":"address[]"}],"stateMutability":"view"},{"type":"function","name":"getQuote","inputs":[{"name":"tokenIn","type":"address","internalType":"address"},{"name":"tokenOut","type":"address","internalType":"address"},{"name":"amountIn","type":"uint256","internalType":"uint256"}],"outputs":[{"name":"amountOut","type":"uint256","internalType":"uint256"}],"stateMutability":"view"},{"type":"function","name":"getRealQuote","inputs":[{"name":"tokenIn","type":"address","internalType":"address"},{"name":"tokenOut","type":"address","internalType":"address"},{"name":"amountIn","type":"uint256","internalType":"uint256"}],"outputs":[{"name":"amountOut","type":"uint256","internalType":"uint256"}],"stateMutability":"nonpayable"},{"type":"function","name":"getSwapQuote","inputs":[{"name":"tokenIn","type":"address","internalType":"address"},{"name":"tokenOut","type":"address","internalType":"address"},{"name":"amountIn","type":"uint256","internalType":"uint256"}],"outputs":[{"name":"amountOut","type":"uint256","internalType":"uint256"},{"name":"estimatedGas","type":"uint256","internalType":"uint256"},{"name":"hopCount","type":"uint256","internalType":"uint256"},{"name":"path","type":"address[]","internalType":"address[]"}],"stateMutability":"view"},{"type":"function","name":"maxSlippageBps","inputs":[],"outputs":[{"name":"","type":"uint256","internalType":"uint256"}],"stateMutability":"view"},{"type":"function","name":"multiHopRoutes","inputs":[{"name":"","type":"bytes32","internalType":"bytes32"},{"name":"","type":"uint256","internalType":"uint256"}],"outputs":[{"name":"","type":"address","internalType":"address"}],"stateMutability":"view"},{"type":"function","name":"owner","inputs":[],"outputs":[{"name":"","type":"address","internalType":"address"}],"stateMutability":"view"},{"type":"function","name":"poolManager","inputs":[],"outputs":[{"name":"","type":"address","internalType":"address"}],"stateMutability":"view"},{"type":"function","name":"quoterV3","inputs":[],"outputs":[{"name":"","type":"address","internalType":"address"}],"stateMutability":"view"},{"type":"function","name":"removeDirectPool","inputs":[{"name":"tokenIn","type":"address","internalType":"address"},{"name":"tokenOut","type":"address","internalType":"address"}],"outputs":[],"stateMutability":"nonpayable"},{"type":"function","name":"removeMultiHopPath","inputs":[{"name":"tokenIn","type":"address","internalType":"address"},{"name":"tokenOut","type":"address","internalType":"address"}],"outputs":[],"stateMutability":"nonpayable"},{"type":"function","name":"removeV3Pool","inputs":[{"name":"tokenIn","type":"address","internalType":"address"},{"name":"tokenOut","type":"address","internalType":"address"}],"outputs":[],"stateMutability":"nonpayable"},{"type":"function","name":"renounceOwnership","inputs":[],"outputs":[],"stateMutability":"nonpayable"},{"type":"function","name":"setAuthorizedCaller","inputs":[{"name":"caller","type":"address","internalType":"address"},{"name":"allowed","type":"bool","internalType":"bool"}],"outputs":[],"stateMutability":"nonpayable"},{"type":"function","name":"setDirectPool","inputs":[{"name":"tokenIn","type":"address","internalType":"address"},{"name":"tokenOut","type":"address","internalType":"address"},{"name":"fee","type":"uint24","internalType":"uint24"},{"name":"tickSpacing","type":"int24","internalType":"int24"},{"name":"hooks","type":"address","internalType":"address"},{"name":"hookData","type":"bytes","internalType":"bytes"}],"outputs":[],"stateMutability":"nonpayable"},{"type":"function","name":"setMaxSlippage","inputs":[{"name":"bps","type":"uint256","internalType":"uint256"}],"outputs":[],"stateMutability":"nonpayable"},{"type":"function","name":"setMultiHopPath","inputs":[{"name":"tokenIn","type":"address","internalType":"address"},{"name":"tokenOut","type":"address","internalType":"address"},{"name":"path","type":"address[]","internalType":"address[]"}],"outputs":[],"stateMutability":"nonpayable"},{"type":"function","name":"setQuoterV3","inputs":[{"name":"_quoter","type":"address","internalType":"address"}],"outputs":[],"stateMutability":"nonpayable"},{"type":"function","name":"setV3Pool","inputs":[{"name":"tokenIn","type":"address","internalType":"address"},{"name":"tokenOut","type":"address","internalType":"address"},{"name":"feeTier","type":"uint24","internalType":"uint24"}],"outputs":[],"stateMutability":"nonpayable"},{"type":"function","name":"setV3Router","inputs":[{"name":"_swapRouterV3","type":"address","internalType":"address"}],"outputs":[],"stateMutability":"nonpayable"},{"type":"function","name":"setVault","inputs":[{"name":"_vault","type":"address","internalType":"address"}],"outputs":[],"stateMutability":"nonpayable"},{"type":"function","name":"swap","inputs":[{"name":"tokenIn","type":"address","internalType":"address"},{"name":"tokenOut","type":"address","internalType":"address"},{"name":"amountIn","type":"uint256","internalType":"uint256"},{"name":"minAmountOut","type":"uint256","internalType":"uint256"},{"name":"recipient","type":"address","internalType":"address"}],"outputs":[{"name":"amountOut","type":"uint256","internalType":"uint256"}],"stateMutability":"nonpayable"},{"type":"function","name":"swapFromVault","inputs":[{"name":"tokenIn","type":"address","internalType":"address"},{"name":"tokenOut","type":"address","internalType":"address"},{"name":"amountIn","type":"uint256","internalType":"uint256"},{"name":"minAmountOut","type":"uint256","internalType":"uint256"},{"name":"recipient","type":"address","internalType":"address"}],"outputs":[{"name":"amountOut","type":"uint256","internalType":"uint256"}],"stateMutability":"nonpayable"},{"type":"function","name":"swapRouterV3","inputs":[],"outputs":[{"name":"","type":"address","internalType":"address"}],"stateMutability":"view"},{"type":"function","name":"transferOwnership","inputs":[{"name":"newOwner","type":"address","internalType":"address"}],"outputs":[],"stateMutability":"nonpayable"},{"type":"function","name":"universalRouter","inputs":[],"outputs":[{"name":"","type":"address","internalType":"address"}],"stateMutability":"view"},{"type":"function","name":"v3Pools","inputs":[{"name":"","type":"bytes32","internalType":"bytes32"}],"outputs":[{"name":"feeTier","type":"uint24","internalType":"uint24"},{"name":"isActive","type":"bool","internalType":"bool"}],"stateMutability":"view"},{"type":"function","name":"validateV4Router","inputs":[],"outputs":[{"name":"","type":"bool","internalType":"bool"}],"stateMutability":"view"},{"type":"function","name":"vault","inputs":[],"outputs":[{"name":"","type":"address","internalType":"contract PaymentKitaVault"}],"stateMutability":"view"},{"type":"event","name":"AuthorizedCallerSet","inputs":[{"name":"caller","type":"address","indexed":true,"internalType":"address"},{"name":"allowed","type":"bool","indexed":false,"internalType":"bool"}],"anonymous":false},{"type":"event","name":"OwnershipTransferred","inputs":[{"name":"previousOwner","type":"address","indexed":true,"internalType":"address"},{"name":"newOwner","type":"address","indexed":true,"internalType":"address"}],"anonymous":false},{"type":"event","name":"RouteRemoved","inputs":[{"name":"tokenIn","type":"address","indexed":true,"internalType":"address"},{"name":"tokenOut","type":"address","indexed":true,"internalType":"address"},{"name":"routeType","type":"string","indexed":false,"internalType":"string"}],"anonymous":false},{"type":"event","name":"SwapExecuted","inputs":[{"name":"tokenIn","type":"address","indexed":true,"internalType":"address"},{"name":"tokenOut","type":"address","indexed":true,"internalType":"address"},{"name":"amountIn","type":"uint256","indexed":false,"internalType":"uint256"},{"name":"amountOut","type":"uint256","indexed":false,"internalType":"uint256"},{"name":"recipient","type":"address","indexed":true,"internalType":"address"}],"anonymous":false},{"type":"event","name":"V4RouterValidated","inputs":[{"name":"router","type":"address","indexed":true,"internalType":"address"}],"anonymous":false},{"type":"error","name":"InvalidAddress","inputs":[]},{"type":"error","name":"NoRouteFound","inputs":[]},{"type":"error","name":"OwnableInvalidOwner","inputs":[{"name":"owner","type":"address","internalType":"address"}]},{"type":"error","name":"OwnableUnauthorizedAccount","inputs":[{"name":"account","type":"address","internalType":"address"}]},{"type":"error","name":"PoolNotActive","inputs":[]},{"type":"error","name":"ReentrancyGuardReentrantCall","inputs":[]},{"type":"error","name":"SafeERC20FailedOperation","inputs":[{"name":"token","type":"address","internalType":"address"}]},{"type":"error","name":"SameToken","inputs":[]},{"type":"error","name":"SlippageExceeded","inputs":[]},{"type":"error","name":"Unauthorized","inputs":[]},{"type":"error","name":"ZeroAmount","inputs":[]}],"userdoc":{},"devdoc":{},"evm":{"bytecode":{"object":"608034620001f857601f6200301738819003918201601f1916830191906001600160401b03831184841017620001fc578160609285926040958652833981010312620001f857620000508262000210565b906200006c81620000646020860162000210565b940162000210565b913315620001e1575f8054336001600160a01b03198083168217845585519693949390926001600160a01b03929083167f8be0079c531659141344cd1fd0a4f28419497f9722a3daafe3b4186f6b6457e08780a360017f9b779b17422d0df92223018b32b4d1fa46e071723d6817e2486d003becc55f00556101f4600b558184169687158015620001d6575b620001c757508187986200012b969798856002541617600255168360035416176003551690600654161760065562000225565b1562000179578151927fa4a767263a46bd6ea685c21e06b2897cfe537aac3b354d9809c673c73feb789a8280a2338152600a60205220805460ff19166001179055612dd69081620002418239f35b815162461bcd60e51b815260206004820152602160248201527f563420726f7574657220696e74657266616365206e6f7420737570706f7274656044820152601960fa1b6064820152608490fd5b63e6c4247b60e01b8152600490fd5b5082891615620000f8565b8151631e4fbdf760e01b81525f6004820152602490fd5b5f80fd5b634e487b7160e01b5f52604160045260245ffd5b51906001600160a01b0382168203620001f857565b6001600160a01b038116156200023b573b151590565b505f9056fe60806040526004361015610011575f80fd5b5f3560e01c80630308c7be1461135157806307ed1635146110975780630b55ca1914610ef857806333c3e89014610edb57806335a9e4df14610eb357806336b892a414610e425780634260677114610da957806343f68a4914610d47578063454bbd2914610cba5780634a21dd0b14610c88578063526282af14610c4d578063536fff6c14610c1057806356f8ab1f14610bf55780635b34faaa14610bcd5780635c9c030a14610b8a5780635edcd9bc14610b6b5780636817031b14610b285780636896163114610b0757806370bbf45314610a4e578063715018a6146109f7578063731b0ceb146109a15780638da5cb5b1461097a578063993daa06146108e6578063a730cdfb146108ca578063a7e185481461081e578063b631e80b146107f6578063c4aa7395146107d9578063c515ee23146107af578063d5bcb9b51461064c578063d8fe594214610496578063dc4c90d31461046e578063e8d2da5e14610380578063e93f12f714610336578063f2fde38b146102ac578063f4734b0c14610284578063f7d0246914610267578063fbb5b7c0146101e75763fbfa77cf146101bb575f80fd5b346101e3575f3660031901126101e3576001546040516001600160a01b039091168152602090f35b5f80fd5b346101e35760203660031901126101e3576004355f52600760205260405f20805460ff60026102186001850161157b565b9301541661025b604051938362ffffff86951685528060181c60020b602086015260018060a01b039060301c16604085015260a0606085015260a084019061161c565b90151560808301520390f35b346101e3575f3660031901126101e3576020604051620249f08152f35b346101e3575f3660031901126101e3576006546040516001600160a01b039091168152602090f35b346101e35760203660031901126101e3576102c5611394565b6102cd61165a565b6001600160a01b0390811690811561031e575f54826bffffffffffffffffffffffff60a01b8216175f55167f8be0079c531659141344cd1fd0a4f28419497f9722a3daafe3b4186f6b6457e05f80a3005b604051631e4fbdf760e01b81525f6004820152602490fd5b346101e35760403660031901126101e3576024356004355f52600860205260405f209081548110156101e3575f91825260209182902001546040516001600160a01b039091168152f35b346101e35760403660031901126101e357610399611394565b6103a16113aa565b6103a961165a565b6103b38183611a9e565b5f5260076020525f600260408220828155600181016103d28154611488565b9081610431575b505001557f90f450154ab326195ee27dc36a04a202f6b829c1fc23df23afe47bf80b530b32606060405192602084526009602085015268158d17d112549150d560ba1b604085015260018060a01b03809116941692a3005b81601f8693116001146104485750555b85806103d9565b908083918252610467601f60208420940160051c840160018501611a2c565b5555610441565b346101e3575f3660031901126101e3576003546040516001600160a01b039091168152602090f35b346101e3576104a436611443565b936104b093919361171d565b6104b861175f565b6001546001600160a01b0390811692831561063a578181169382841693858514610628578615610616576104ec838261180d565b94919290921561060457833b156101e35760405163a6c29ca360e01b81526001600160a01b0382166004820152306024820152604481018a9052935f908590606490829084905af19283156105f9578a948a946105ea575b50156105d9576105549450611b08565b945b85106105c75760407fee4825a7988c5519a874be79f2a84d13d02cfe5f74cad97cda2d5b55d2b13bfa918761058e8860209a8861169f565b825196875287898801521694a460017f9b779b17422d0df92223018b32b4d1fa46e071723d6817e2486d003becc55f0055604051908152f35b604051638199f5f360e01b8152600490fd5b50506105e492612401565b94610556565b6105f3906114f6565b8c610544565b6040513d5f823e3d90fd5b6040516305fcedf360e01b8152600490fd5b604051631f2a200560e01b8152600490fd5b60405163100dac0560e11b8152600490fd5b60405163e6c4247b60e01b8152600490fd5b346101e35761065a36611443565b9390929161066661171d565b61066e61175f565b6001600160a01b0383811692808216929183851461062857821561061657871694851561063a5761069f818361180d565b939115610604576040516323b872dd60e01b5f5233600452306024528560445260205f606481808b5af160015f5114811615610790575b816040525f6060521561077a575091849189935f14610769576106f99450611b08565b945b85106105c75760407fee4825a7988c5519a874be79f2a84d13d02cfe5f74cad97cda2d5b55d2b13bfa91610732876020998761169f565b81519081528688820152a460017f9b779b17422d0df92223018b32b4d1fa46e071723d6817e2486d003becc55f0055604051908152f35b505061077492612401565b946106fb565b635274afe760e01b815260048101879052602490fd5b60018115166107a657873b15153d1516166106d6565b503d5f823e3d90fd5b346101e3576107c76107c0366113d2565b929161180d565b50501561060457602090604051908152f35b346101e3575f3660031901126101e3576020600b54604051908152f35b346101e3575f3660031901126101e3576004546040516001600160a01b039091168152602090f35b346101e35760603660031901126101e357610837611394565b61083f6113aa565b906108486113c0565b9161085161165a565b6001600160a01b03828116159081156108bf575b5061063a5761087391611a9e565b60405191610880836114db565b62ffffff80911683526020830191600183525f52600960205260405f2092511663ff00000083549251151560181b169163ffffffff1916171790555f80f35b905081161584610865565b346101e3575f3660031901126101e357602060405161c3508152f35b346101e35760403660031901126101e3576108ff611394565b6109076113aa565b61090f61165a565b6109198183611a9e565b5f5260096020525f60408120557f90f450154ab326195ee27dc36a04a202f6b829c1fc23df23afe47bf80b530b32606060405192602084526009602085015268158cd7d112549150d560ba1b604085015260018060a01b03809116941692a3005b346101e3575f3660031901126101e3575f546040516001600160a01b039091168152602090f35b346101e35760403660031901126101e3576109f36109ce6109c0611394565b6109c86113aa565b9061180d565b6040939193519384931515845215156020840152606060408401526060830190611407565b0390f35b346101e3575f3660031901126101e357610a0f61165a565b5f80546001600160a01b0319811682556001600160a01b03167f8be0079c531659141344cd1fd0a4f28419497f9722a3daafe3b4186f6b6457e08280a3005b346101e35760403660031901126101e357610a67611394565b610a6f6113aa565b610a7761165a565b610a818183611a56565b5f52600860205260405f2080545f825580610aed575b50507f90f450154ab326195ee27dc36a04a202f6b829c1fc23df23afe47bf80b530b3260606040519260208452600960208501526804d554c54495f484f560bc1b604085015260018060a01b03809116941692a3005b610b00915f5260205f2090810190611a2c565b8280610a97565b346101e3576020610b20610b1a366113d2565b91612c4a565b604051908152f35b346101e35760203660031901126101e357610b41611394565b610b4961165a565b600180546001600160a01b0319166001600160a01b0392909216919091179055005b346101e3575f3660031901126101e357604051600160fc1b8152602090f35b346101e35760203660031901126101e357610ba3611394565b610bab61165a565b600480546001600160a01b0319166001600160a01b0392909216919091179055005b346101e3575f3660031901126101e3576005546040516001600160a01b039091168152602090f35b346101e3575f3660031901126101e357602060405160648152f35b346101e35760203660031901126101e3576001600160a01b03610c31611394565b165f52600a602052602060ff60405f2054166040519015158152f35b346101e35760203660031901126101e3576004355f5260096020526040805f205460ff82519162ffffff8116835260181c1615156020820152f35b346101e3575f3660031901126101e357600254602090610cb0906001600160a01b0316611685565b6040519015158152f35b346101e35760403660031901126101e357610cd3611394565b60243590811515908183036101e357610cea61165a565b6001600160a01b031691821561063a577f1eff62a53441c7d0125c22f2a9a324e206b34efa41e19469d7efb9bb703d21a391610d3e602092855f52600a845260405f209060ff801983541691151516179055565b604051908152a2005b346101e35760203660031901126101e357600435610d6361165a565b6103e88111610d7157600b55005b60405162461bcd60e51b815260206004820152601060248201526f4d61782031302520736c69707061676560801b6044820152606490fd5b346101e357610dba6107c0366113d2565b909291156106045780515f19810193908411610e2e5715610e02576109f390620249f0935b604051948594855260208501526040840152608060608401526080830190611407565b6201d4c090818402918483041484151715610e2e5761c350918201809211610e2e576109f39193610ddf565b634e487b7160e01b5f52601160045260245ffd5b346101e357610e5a610e53366113d2565b509061180d565b90911561060457515f19810191908211610e2e5715610e8857604090620249f0905b82519182526020820152f35b6201d4c090818102918183041481151715610e2e5761c350918201809211610e2e5760409190610e7c565b346101e3575f3660031901126101e3576002546040516001600160a01b039091168152602090f35b346101e3575f3660031901126101e35760206040516201d4c08152f35b346101e35760603660031901126101e357610f11611394565b610f196113aa565b90604435916001600160401b03918284116101e357366023850112156101e35783600401359283116101e3576024918285019436848660051b830101116101e357610f6261165a565b6001600160a01b038381168015801561108d575b61063a576002871061063a5786156110675781610f9289611a42565b161491821592611033575b505061063a57610fac91611a56565b5f526020926008845260405f209168010000000000000000841161102057508154838355808410611005575b50905f52825f20925f5b838110610feb57005b60019082610ff885611a42565b9401938187015501610fe2565b61101a90835f5284865f209182019101611a2c565b84610fd8565b634e487b7160e01b5f9081526041600452fd5b9091505f19860186811161107a57868110156110675761105991869160051b0101611a42565b811690821614158680610f9d565b85634e487b7160e01b5f5260326004525ffd5b85634e487b7160e01b5f5260116004525ffd5b5081841615610f76565b346101e35760c03660031901126101e3576110b0611394565b6110b86113aa565b6110c06113c0565b90606435928360020b8094036101e3576084356001600160a01b0381811693918490036101e3576001600160401b0360a435116101e35736602360a4350112156101e3576001600160401b0360a43560040135116101e35736602460a4356004013560a4350101116101e35761113461165a565b80831615908115611346575b5061063a5761114e91611a9e565b9262ffffff60405193611160856114c0565b1683526020830152604082015260405161118a6020601f19601f60a435600401350116018261155a565b60a43560048101358083529060240160208301375f602060a43560040135830101526060820190815260808201906001938483525f52600760205260405f209262ffffff81511684549065ffffff000000602084015160181b9360406601000000000000600160d01b0391015160301b1693169165ffffffffffff60d01b1617171783558383019051938451946001600160401b0386116113325761122f8354611488565b601f81116112f7575b50602090601f871160011461128f57958060029594938193611282995f94611284575b50501b915f199060031b1c19161790555b51151591019060ff801983541691151516179055565b005b01519250898061125b565b90601f19871691845f5260205f20925f5b8181106112e157509160029695949391896112829a94106112c9575b505050811b01905561126c565b01515f1960f88460031b161c191690558780806112bc565b82840151855593850193602093840193016112a0565b61132290845f5260205f20601f890160051c81019160208a10611328575b601f0160051c0190611a2c565b86611238565b9091508190611315565b634e487b7160e01b5f52604160045260245ffd5b905081161586611140565b346101e35760203660031901126101e35761136a611394565b61137261165a565b600580546001600160a01b0319166001600160a01b0392909216919091179055005b600435906001600160a01b03821682036101e357565b602435906001600160a01b03821682036101e357565b6044359062ffffff821682036101e357565b60609060031901126101e3576001600160a01b039060043582811681036101e3579160243590811681036101e3579060443590565b9081518082526020808093019301915f5b828110611426575050505090565b83516001600160a01b031685529381019392810192600101611418565b60a09060031901126101e3576001600160a01b0360043581811681036101e3579160243582811681036101e35791604435916064359160843590811681036101e35790565b90600182811c921680156114b6575b60208310146114a257565b634e487b7160e01b5f52602260045260245ffd5b91607f1691611497565b60a081019081106001600160401b0382111761133257604052565b604081019081106001600160401b0382111761133257604052565b6001600160401b03811161133257604052565b60e081019081106001600160401b0382111761133257604052565b606081019081106001600160401b0382111761133257604052565b608081019081106001600160401b0382111761133257604052565b90601f801991011681019081106001600160401b0382111761133257604052565b9060405191825f82549261158e84611488565b9081845260019485811690815f146115f957506001146115b9575b50506115b79250038361155a565b565b909391505f52602090815f20935f915b8183106115e15750506115b793508201015f806115a9565b855488840185015294850194879450918301916115c9565b9150506115b794506020925060ff191682840152151560051b8201015f806115a9565b91908251928382525f5b848110611646575050825f602080949584010152601f8019910116010190565b602081830181015184830182015201611626565b5f546001600160a01b0316330361166d57565b60405163118cdaa760e01b8152336004820152602490fd5b6001600160a01b0381161561169a573b151590565b505f90565b60405163a9059cbb60e01b5f9081526001600160a01b039384166004526024949094529260209060448180855af160015f51148116156116fe575b83604052156116e857505050565b635274afe760e01b835216600482015260249150fd5b600181151661171457813b15153d1516166116da565b833d5f823e3d90fd5b7f9b779b17422d0df92223018b32b4d1fa46e071723d6817e2486d003becc55f00600281541461174d5760029055565b604051633ee5aeb560e01b8152600490fd5b335f52600a60205260ff60405f205416158061178d575b61177c57565b6040516282b42960e81b8152600490fd5b505f546001600160a01b0316331415611776565b6001600160401b0381116113325760051b60200190565b8051156117c55760200190565b634e487b7160e01b5f52603260045260245ffd5b8051600110156117c55760400190565b8051600210156117c55760600190565b80518210156117c55760209160051b010190565b90916118198383611a9e565b5f938185526020936007855260409260ff6002858920015416611a0d5786526009855260ff8387205460181c166119c8576118548282611a56565b86526008855282862080548061196b5750506006546001600160a01b0391908216908115158061195f575b80611953575b6118c7575b505050508051928301908382106001600160401b038311176118b3575282825282368137829190565b634e487b7160e01b85526041600452602485fd5b6118d18282611a9e565b6118db8584611a9e565b9089526007885260ff6002878b200154169081611940575b501561188a5790919293606090519661190b8861153f565b6003885236908801378261191e876117b8565b9116905261192b856117d9565b52611935846117e9565b911690526001929190565b8952508488206002015460ff165f6118f3565b50818385161415611885565b5081838216141561187f565b92509050600194929495868196519385859686838998520194845280842093905b8282106119a7575050505050906119a491038261155a565b90565b84546001600160a01b0316865287965094850194938301939083019061198c565b91809193955051936119d985611524565b6002855236908501376119eb836117b8565b6001600160a01b039182169052611a01836117d9565b91169052600191829190565b5091809193955051936119d985611524565b91908203918211610e2e57565b818110611a37575050565b5f8155600101611a2c565b356001600160a01b03811681036101e35790565b6040516bffffffffffffffffffffffff19606092831b8116602083019081529390921b9091166034820152611a9881604881015b03601f19810183528261155a565b51902090565b6001600160a01b038083169082161091611a8a91611a9891908415611b015780945b15611afa57505b604051928391602083019586906028926bffffffffffffffffffffffff19809260601b16835260601b1660148201520190565b9050611ac7565b8194611ac0565b929190611b158185611a9e565b935f938585526020936007855260409660ff6002898920015416611c5e5786526009855286862085885191611b49836114db565b549160ff62ffffff84169384835260181c1615159182910152611b775787516305fcedf360e01b8152600490fd5b6004546001600160a01b03908116948515611c4d57928796939282611ba783611bf598958d9c9a971696876122a0565b8060045416958c5195611bb987611509565b865216878501528a840152306060840152608083015260a08201528560c082015287519687809481936304e45aaf60e01b8352600483016123a5565b03925af1938415611c4257508193611c0e575b50505090565b9091809350813d8311611c3b575b611c26818361155a565b81010312611c385750515f8080611c08565b80fd5b503d611c1c565b51913d9150823e3d90fd5b89516305fcedf360e01b8152600490fd5b50935093506119a49450611d78565b60405190611c7a8261153f565b6003825281905f5b606080821015611c9c579060209182828701015201611c82565b5050909150565b604051611caf816114db565b60018152805f5b602080821015611c0857906060602092828501015201611cb6565b90815180825260208092019182818360051b85019501935f915b848310611cfb5750505050505090565b9091929394958480611d1583856001950387528a5161161c565b9801930193019194939290611ceb565b9091611d3c6119a49360408452604084019061161c565b916020818403910152611cd1565b939291611d7390611d6560409360608852606088019061161c565b908682036020880152611cd1565b930152565b60025493949390925f92916001600160a01b031690811561229857611d9d8386611a9e565b84526007602052604084209160ff600260405194611dba866114c0565b805462ffffff81168752601881901c830b602088015260301c6001600160a01b03166040870152611ded6001820161157b565b6060870152015416158015608085015261228657611e169082906001600160a01b0388166122a0565b6040516370a0823160e01b8152306004820152946020866024816001600160a01b0388165afa95861561227b578596612247575b506001600160a01b038481169082161015612233576001600160a01b03818116919085165b62ffffff855116602086015160020b9060018060a01b036040880151169260405195611e9a876114c0565b6001600160a01b0390811687521660208601526040850152606084015260808301526001600160801b0383118015612223575b6105c757604051600b60f81b6020820152600360f91b6021820152600760f91b602282015260038152612044999094612099936120a5939091606090611f12896114db565b015160405192611f21846114c0565b83526001600160a01b038981169083161060208401526001600160801b038781166040850152841660608401526080830152611f5b611c6d565b956040519160018060a01b0316602083015260408201526001606082015260608152611f868161153f565b611f8f866117b8565b52611f99856117b8565b506040519a8b91602080840152805160018060a01b03815116604085015260018060a01b03602082015116606085015262ffffff6040820151166080850152606081015160020b60a0850152608060018060a01b039101511660c08401526020810151151560e08401526001600160801b0360408201511661010084015260806001600160801b0360608301511691610120928386015201519061014084015261016083019061161c565b0399612058601f199b8c810183528261155a565b612061856117d9565b5261206b846117d9565b50604080516001600160a01b0388166020820152309181019190915260608101919091529182906080820190565b0389810183528261155a565b6120ae826117e9565b526120b8816117e9565b50604051600160fc1b602082015260018152966120ff906120d8896114db565b6120e0611ca3565b936120f360405194859260208401611d25565b0390810183528261155a565b612108826117b8565b52612112816117b8565b5060018060a01b03600254169061025842019687421161220f57823b1561220b579161215997918580946040519a8b9586948593630d64d59360e21b855260048501611d4a565b03925af194851561220057602494956121ec575b506040516370a0823160e01b81523060048201529360209185919082906001600160a01b03165afa9081156121e057906121ac575b6119a49250611a1f565b506020823d6020116121d8575b816121c66020938361155a565b810103126101e3576119a491516121a2565b3d91506121b9565b604051903d90823e3d90fd5b916121f9602092936114f6565b919061216d565b6040513d84823e3d90fd5b8480fd5b634e487b7160e01b85526011600452602485fd5b506001600160801b038911611ecd565b6001600160a01b0384811691908116611e6f565b9095506020813d602011612273575b816122636020938361155a565b8101031261220b5751945f611e4a565b3d9150612256565b6040513d87823e3d90fd5b6040516338c0a90160e11b8152600490fd5b955050505050565b60405163095ea7b360e01b5f8181526001600160a01b0394851660048190526024879052919591929060209060448180885af160015f5114811615612398575b81604052156122f2575b505050505050565b60205f878152846004528060245260448180885af160015f5114811615612382575b816040521561236b5750906020915f9160405196835260045260245260448180855af160015f5114811615612355575b83604052156116e8578080806122ea565b600181151661171457813b15153d151616612344565b635274afe760e01b81528385166004820152602490fd5b60018115166107a657843b15153d151616612314565b843b15153d1516166122e0565b91909160c060e08201938160018060a01b039182815116855282602082015116602086015262ffffff60408201511660408601528260608201511660608601526080810151608086015260a081015160a0860152015116910152565b9291906124336001600160a01b03612418866117b8565b51166001600160a01b0361242b876117d9565b511690611a9e565b5f52600760205260ff600260405f200154165f14612455576119a49293612621565b600960205260ff60405f205460181c1661247b576040516305fcedf360e01b8152600490fd5b6004546001600160a01b03161561060457925f935b81515f198101908111610e2e5785101561260d576001600160a01b036124b686846117f9565b51169060018601808711610e2e576001600160a01b03906124d790856117f9565b5116916124e48382611a9e565b5f52600960205260405f2060ff604051916124fe836114db565b5462ffffff8116835260181c1615801560208301526122865784519182600119810111610e2e575f946020946125b094600119018b036126065788915b6004546125539083906001600160a01b0316866122a0565b62ffffff60018060a01b0360045416955116906040519461257386611509565b8552878501526040840152306060840152608083015260a08201528460c08201526040519485809481936304e45aaf60e01b8352600483016123a5565b03925af180156105f9575f906125d2575b6125cc915094612613565b93612490565b506020813d6020116125fe575b816125ec6020938361155a565b810103126101e3576125cc90516125c1565b3d91506125df565b869161253b565b93505050565b5f198114610e2e5760010190565b6002549193919290915f916001600160a01b03851615612c435783516002811061060457805f19810111612c2f5761265b5f1982016117a1565b96612669604051988961155a565b5f198201808952601f199061267d906117a1565b01855b818110612bfa575050845b825f19810111612b15575f1983018110156127c2576001600160a01b036126b282896117f9565b511690600181018082116127ae576126e0906001600160a01b03906126d7908b6117f9565b51168093611a9e565b87526007602052604087209160ff6002604051946126fd866114c0565b805462ffffff81168752601881901c830b602088015260301c6001600160a01b031660408701526127306001820161157b565b60608701520154161580156080850152612286578262ffffff6127a994511690602081015160020b606060018060a01b036040840151169201519260405194612778866114c0565b85526020850152604084015260608301526080820152612798828c6117f9565b526127a3818b6117f9565b50612613565b61268b565b634e487b7160e01b88526011600452602488fd5b509296959194939290916127ee9082906001600160a01b03908116906127e7886117b8565b51166122a0565b815f19810111612be6576001600160a01b0361280d5f198401866117f9565b511695604051956020876024816370a0823160e01b9b8c82523060048301525afa96871561227b578597612bb2575b506001600160a01b0361284e876117b8565b51169160405192608084018481106001600160401b03821117612b9e57604052835260208301526001600160801b03831660408301526001600160801b038116606083015260405191600b60f81b6020840152600760f81b6021840152600760f91b6022840152600383526128c2836114db565b6128ca611c6d565b936001600160a01b036128dc896117b8565b511690604051916020830152604082015260016060820152606081526129018161153f565b61290a856117b8565b52612914846117b8565b50604051906020808301528160c081019160018060a01b03815116604083015260208101519260806060840152835180915260e0830190602060e08260051b8601019501918b905b828210612b295750505050916001600160801b0360608482604061299897015116608086015201511660a083015203601f19810183528261155a565b6129a1846117d9565b526129ab836117d9565b506129f26001600160a01b036129c45f198701896117f9565b5160408051929091166001600160a01b03166020830152309082015260608101929092528160808101611a8a565b6129fb836117e9565b52612a05826117e9565b50604051600160fc1b60208201526001815291612a21836114db565b612a3f612a2c611ca3565b92611a8a60405193849260208401611d25565b612a48826117b8565b52612a52816117b8565b5060018060a01b036002541690610258420192834211612b1557823b15612b115791612a99939186809460405196879586948593630d64d59360e21b855260048501611d4a565b03925af18015612b0657612af0575b5090916020916001600160a01b0391612ac4915f1901906117f9565b51169360246040518096819382523060048301525afa9081156121e057906121ac576119a49250611a1f565b602092612aff612ac4926114f6565b9250612aa8565b6040513d85823e3d90fd5b8580fd5b634e487b7160e01b86526011600452602486fd5b919394509194602080612b8e60019360df198b820301865260808a51868060a01b03815116835262ffffff858201511685840152604081015160020b6040840152868060a01b03606082015116606084015201519060a090816080820152019061161c565b970192019201869493919261295c565b634e487b7160e01b88526041600452602488fd5b9096506020813d602011612bde575b81612bce6020938361155a565b8101031261220b5751955f61283c565b3d9150612bc1565b634e487b7160e01b83526011600452602483fd5b602090604051612c09816114c0565b88815282898183015289604083015260608a818401526080830152828d01015201612680565b634e487b7160e01b84526011600452602484fd5b5092505050565b90612c55818361180d565b50501561060457612c668183611a9e565b915f928352600960205260408320549060ff8260181c1680612d8c575b612c8f575b5050505090565b839160a460809260018060a01b03948593848060055416918160405195612cb5876114c0565b16855281602086019a168a5260408501908c82526060860162ffffff809216815289870192868452846040519d8e9b8c9a636352813560e11b8c52511660048b01525116602489015251604488015251166064860152511660848401525af191839083612d31575b505050612d2c57808080612c88565b905090565b90919293506080813d8211612d84575b81612d4e6080938361155a565b81010312612d8057805192602082015190811603612d80576040015163ffffffff811603611c385750905f8080612d1d565b5080fd5b3d9150612d41565b506005546001600160a01b03161515612c8356fea2646970667358221220e435931162373a94d985f61105b8a05ea55319e23eadb0a0d131cd742419102e64736f6c63430008140033","linkReferences":{}},"methodIdentifiers":{"DEFAULT_SLIPPAGE_BPS()":"56f8ab1f","GAS_OVERHEAD()":"a730cdfb","GAS_PER_HOP()":"33c3e890","GAS_SINGLE_HOP()":"f7d02469","V4_SWAP()":"5edcd9bc","authorizedCallers(address)":"536fff6c","bridgeToken()":"f4734b0c","directPools(bytes32)":"fbb5b7c0","estimateSwapGas(address,address,uint256)":"36b892a4","findRoute(address,address)":"731b0ceb","getQuote(address,address,uint256)":"c515ee23","getRealQuote(address,address,uint256)":"68961631","getSwapQuote(address,address,uint256)":"42606771","maxSlippageBps()":"c4aa7395","multiHopRoutes(bytes32,uint256)":"e93f12f7","owner()":"8da5cb5b","poolManager()":"dc4c90d3","quoterV3()":"5b34faaa","removeDirectPool(address,address)":"e8d2da5e","removeMultiHopPath(address,address)":"70bbf453","removeV3Pool(address,address)":"993daa06","renounceOwnership()":"715018a6","setAuthorizedCaller(address,bool)":"454bbd29","setDirectPool(address,address,uint24,int24,address,bytes)":"07ed1635","setMaxSlippage(uint256)":"43f68a49","setMultiHopPath(address,address,address[])":"0b55ca19","setQuoterV3(address)":"0308c7be","setV3Pool(address,address,uint24)":"a7e18548","setV3Router(address)":"5c9c030a","setVault(address)":"6817031b","swap(address,address,uint256,uint256,address)":"d5bcb9b5","swapFromVault(address,address,uint256,uint256,address)":"d8fe5942","swapRouterV3()":"b631e80b","transferOwnership(address)":"f2fde38b","universalRouter()":"35a9e4df","v3Pools(bytes32)":"526282af","validateV4Router()":"4a21dd0b","vault()":"fbfa77cf"}}}}}